{
  "contractName": "Voting_cyril",
  "abi": [
    {
      "anonymous": false,
      "inputs": [
        {
          "indexed": true,
          "internalType": "address",
          "name": "previousOwner",
          "type": "address"
        },
        {
          "indexed": true,
          "internalType": "address",
          "name": "newOwner",
          "type": "address"
        }
      ],
      "name": "OwnershipTransferred",
      "type": "event"
    },
    {
      "anonymous": false,
      "inputs": [
        {
          "indexed": false,
          "internalType": "uint256",
          "name": "proposalId",
          "type": "uint256"
        }
      ],
      "name": "ProposalRegistered",
      "type": "event"
    },
    {
      "anonymous": false,
      "inputs": [
        {
          "indexed": false,
          "internalType": "address",
          "name": "voter",
          "type": "address"
        },
        {
          "indexed": false,
          "internalType": "uint256",
          "name": "proposalId",
          "type": "uint256"
        }
      ],
      "name": "Voted",
      "type": "event"
    },
    {
      "anonymous": false,
      "inputs": [
        {
          "indexed": false,
          "internalType": "address",
          "name": "voterAddress",
          "type": "address"
        }
      ],
      "name": "VoterRegistered",
      "type": "event"
    },
    {
      "anonymous": false,
      "inputs": [
        {
          "indexed": false,
          "internalType": "enum Voting_cyril.WorkflowStatus",
          "name": "previousStatus",
          "type": "uint8"
        },
        {
          "indexed": false,
          "internalType": "enum Voting_cyril.WorkflowStatus",
          "name": "newStatus",
          "type": "uint8"
        }
      ],
      "name": "WorkflowStatusChange",
      "type": "event"
    },
    {
      "inputs": [],
      "name": "owner",
      "outputs": [
        {
          "internalType": "address",
          "name": "",
          "type": "address"
        }
      ],
      "stateMutability": "view",
      "type": "function",
      "constant": true
    },
    {
      "inputs": [
        {
          "internalType": "uint256",
          "name": "",
          "type": "uint256"
        }
      ],
      "name": "proposalsArray",
      "outputs": [
        {
          "internalType": "string",
          "name": "description",
          "type": "string"
        },
        {
          "internalType": "uint256",
          "name": "voteCount",
          "type": "uint256"
        }
      ],
      "stateMutability": "view",
      "type": "function",
      "constant": true
    },
    {
      "inputs": [],
      "name": "renounceOwnership",
      "outputs": [],
      "stateMutability": "nonpayable",
      "type": "function"
    },
    {
      "inputs": [
        {
          "internalType": "address",
          "name": "newOwner",
          "type": "address"
        }
      ],
      "name": "transferOwnership",
      "outputs": [],
      "stateMutability": "nonpayable",
      "type": "function"
    },
    {
      "inputs": [],
      "name": "workflowStatus",
      "outputs": [
        {
          "internalType": "enum Voting_cyril.WorkflowStatus",
          "name": "",
          "type": "uint8"
        }
      ],
      "stateMutability": "view",
      "type": "function",
      "constant": true
    },
    {
      "inputs": [
        {
          "internalType": "address",
          "name": "_addr",
          "type": "address"
        }
      ],
      "name": "getVoter",
      "outputs": [
        {
          "components": [
            {
              "internalType": "bool",
              "name": "isRegistered",
              "type": "bool"
            },
            {
              "internalType": "bool",
              "name": "hasVoted",
              "type": "bool"
            },
            {
              "internalType": "uint256",
              "name": "votedProposalId",
              "type": "uint256"
            }
          ],
          "internalType": "struct Voting_cyril.Voter",
          "name": "",
          "type": "tuple"
        }
      ],
      "stateMutability": "view",
      "type": "function",
      "constant": true
    },
    {
      "inputs": [
        {
          "internalType": "uint256",
          "name": "_id",
          "type": "uint256"
        }
      ],
      "name": "getOneProposal",
      "outputs": [
        {
          "components": [
            {
              "internalType": "string",
              "name": "description",
              "type": "string"
            },
            {
              "internalType": "uint256",
              "name": "voteCount",
              "type": "uint256"
            }
          ],
          "internalType": "struct Voting_cyril.Proposal",
          "name": "",
          "type": "tuple"
        }
      ],
      "stateMutability": "view",
      "type": "function",
      "constant": true
    },
    {
      "inputs": [],
      "name": "getWinners",
      "outputs": [
        {
          "components": [
            {
              "internalType": "string",
              "name": "description",
              "type": "string"
            },
            {
              "internalType": "uint256",
              "name": "voteCount",
              "type": "uint256"
            }
          ],
          "internalType": "struct Voting_cyril.Proposal[]",
          "name": "",
          "type": "tuple[]"
        }
      ],
      "stateMutability": "view",
      "type": "function",
      "constant": true
    },
    {
      "inputs": [
        {
          "internalType": "address",
          "name": "_addr",
          "type": "address"
        }
      ],
      "name": "addVoter",
      "outputs": [],
      "stateMutability": "nonpayable",
      "type": "function"
    },
    {
      "inputs": [
        {
          "internalType": "string",
          "name": "_desc",
          "type": "string"
        }
      ],
      "name": "addProposal",
      "outputs": [],
      "stateMutability": "nonpayable",
      "type": "function"
    },
    {
      "inputs": [
        {
          "internalType": "uint256",
          "name": "_id",
          "type": "uint256"
        }
      ],
      "name": "setVote",
      "outputs": [],
      "stateMutability": "nonpayable",
      "type": "function"
    },
    {
      "inputs": [],
      "name": "startProposalsRegistering",
      "outputs": [],
      "stateMutability": "nonpayable",
      "type": "function"
    },
    {
      "inputs": [],
      "name": "endProposalsRegistering",
      "outputs": [],
      "stateMutability": "nonpayable",
      "type": "function"
    },
    {
      "inputs": [],
      "name": "startVotingSession",
      "outputs": [],
      "stateMutability": "nonpayable",
      "type": "function"
    },
    {
      "inputs": [],
      "name": "endVotingSession",
      "outputs": [],
      "stateMutability": "nonpayable",
      "type": "function"
    },
    {
      "inputs": [],
      "name": "countVotes",
      "outputs": [],
      "stateMutability": "nonpayable",
      "type": "function"
    }
  ],
  "bytecode": "0x60806040523480156200001157600080fd5b5062000032620000266200003860201b60201c565b6200004060201b60201c565b62000104565b600033905090565b60008060009054906101000a900473ffffffffffffffffffffffffffffffffffffffff169050816000806101000a81548173ffffffffffffffffffffffffffffffffffffffff021916908373ffffffffffffffffffffffffffffffffffffffff1602179055508173ffffffffffffffffffffffffffffffffffffffff168173ffffffffffffffffffffffffffffffffffffffff167f8be0079c531659141344cd1fd0a4f28419497f9722a3daafe3b4186f6b6457e060405160405180910390a35050565b612b3b80620001146000396000f3fe608060405234801561001057600080fd5b50600436106101005760003560e01c8063c7038a4e11610097578063ee74c67811610066578063ee74c67814610229578063f2fde38b14610233578063f4ab9adf1461024f578063f86c67791461026b57610100565b8063c7038a4e146101c7578063c88af42f146101d1578063d4f50f98146101db578063df15c37e1461020b57610100565b8063a1edffa2116100d3578063a1edffa214610165578063a2788cce14610183578063a7bfab16146101b3578063b647990a146101bd57610100565b8063230796ae146101055780632fdae3c514610121578063715018a61461013d5780638da5cb5b14610147575b600080fd5b61011f600480360381019061011a9190611b55565b61029c565b005b61013b60048036038101906101369190611cc8565b610599565b005b6101456107dd565b005b61014f610865565b60405161015c9190611d52565b60405180910390f35b61016d61088e565b60405161017a9190611de4565b60405180910390f35b61019d60048036038101906101989190611b55565b6108a1565b6040516101aa9190611ed3565b60405180910390f35b6101bb610979565b005b6101c5610ad2565b005b6101cf610e36565b005b6101d9610f90565b005b6101f560048036038101906101f09190611f21565b6110ea565b6040516102029190611fab565b60405180910390f35b610213611212565b60405161022091906120c5565b60405180910390f35b610231611382565b005b61024d60048036038101906102489190611f21565b6114dc565b005b61026960048036038101906102649190611f21565b6115d4565b005b61028560048036038101906102809190611b55565b6117f2565b604051610293929190612140565b60405180910390f35b600660003373ffffffffffffffffffffffffffffffffffffffff1673ffffffffffffffffffffffffffffffffffffffff16815260200190815260200160002060000160009054906101000a900460ff1661032b576040517f08c379a0000000000000000000000000000000000000000000000000000000008152600401610322906121bc565b60405180910390fd5b6003600581111561033f5761033e611d6d565b5b600460009054906101000a900460ff16600581111561036157610360611d6d565b5b146103a1576040517f08c379a00000000000000000000000000000000000000000000000000000000081526004016103989061224e565b60405180910390fd5b60011515600660003373ffffffffffffffffffffffffffffffffffffffff1673ffffffffffffffffffffffffffffffffffffffff16815260200190815260200160002060000160019054906101000a900460ff1615151415610438576040517f08c379a000000000000000000000000000000000000000000000000000000000815260040161042f906122ba565b60405180910390fd5b600580549050811115610480576040517f08c379a000000000000000000000000000000000000000000000000000000000815260040161047790612326565b60405180910390fd5b80600660003373ffffffffffffffffffffffffffffffffffffffff1673ffffffffffffffffffffffffffffffffffffffff168152602001908152602001600020600101819055506001600660003373ffffffffffffffffffffffffffffffffffffffff1673ffffffffffffffffffffffffffffffffffffffff16815260200190815260200160002060000160016101000a81548160ff0219169083151502179055506005818154811061053657610535612346565b5b90600052602060002090600202016001016000815480929190610558906123a4565b91905055507f4d99b957a2bc29a30ebd96a7be8e68fe50a3c701db28a91436490b7d53870ca4338260405161058e9291906123ed565b60405180910390a150565b600660003373ffffffffffffffffffffffffffffffffffffffff1673ffffffffffffffffffffffffffffffffffffffff16815260200190815260200160002060000160009054906101000a900460ff16610628576040517f08c379a000000000000000000000000000000000000000000000000000000000815260040161061f906121bc565b60405180910390fd5b6001600581111561063c5761063b611d6d565b5b600460009054906101000a900460ff16600581111561065e5761065d611d6d565b5b1461069e576040517f08c379a000000000000000000000000000000000000000000000000000000000815260040161069590612462565b60405180910390fd5b6040516020016106ad906124a8565b60405160208183030381529060405280519060200120816040516020016106d491906124c8565b60405160208183030381529060405280519060200120141561072b576040517f08c379a00000000000000000000000000000000000000000000000000000000081526004016107229061255c565b60405180910390fd5b61073361197a565b81816000018190525060058190806001815401808255809150506001900390600052602060002090600202016000909190919091506000820151816000019080519060200190610784929190611994565b506020820151816001015550507f92e393e9b54e2f801d3ea4beb0c5e71a21cc34a5d34b77d0fb8a3aa1650dc18f60016005805490506107c4919061257c565b6040516107d191906125b0565b60405180910390a15050565b6107e56118ae565b73ffffffffffffffffffffffffffffffffffffffff16610803610865565b73ffffffffffffffffffffffffffffffffffffffff1614610859576040517f08c379a000000000000000000000000000000000000000000000000000000000815260040161085090612617565b60405180910390fd5b61086360006118b6565b565b60008060009054906101000a900473ffffffffffffffffffffffffffffffffffffffff16905090565b600460009054906101000a900460ff1681565b6108a961197a565b600582815481106108bd576108bc612346565b5b90600052602060002090600202016040518060400160405290816000820180546108e690612666565b80601f016020809104026020016040519081016040528092919081815260200182805461091290612666565b801561095f5780601f106109345761010080835404028352916020019161095f565b820191906000526020600020905b81548152906001019060200180831161094257829003601f168201915b505050505081526020016001820154815250509050919050565b6109816118ae565b73ffffffffffffffffffffffffffffffffffffffff1661099f610865565b73ffffffffffffffffffffffffffffffffffffffff16146109f5576040517f08c379a00000000000000000000000000000000000000000000000000000000081526004016109ec90612617565b60405180910390fd5b60036005811115610a0957610a08611d6d565b5b600460009054906101000a900460ff166005811115610a2b57610a2a611d6d565b5b14610a6b576040517f08c379a0000000000000000000000000000000000000000000000000000000008152600401610a629061224e565b60405180910390fd5b60048060006101000a81548160ff02191690836005811115610a9057610a8f611d6d565b5b02179055507f0a97a4ee45751e2abf3e4fc8946939630b11b371ea8ae39ccdc3056e98f5cc3f60036004604051610ac8929190612698565b60405180910390a1565b610ada6118ae565b73ffffffffffffffffffffffffffffffffffffffff16610af8610865565b73ffffffffffffffffffffffffffffffffffffffff1614610b4e576040517f08c379a0000000000000000000000000000000000000000000000000000000008152600401610b4590612617565b60405180910390fd5b60046005811115610b6257610b61611d6d565b5b600460009054906101000a900460ff166005811115610b8457610b83611d6d565b5b14610bc4576040517f08c379a0000000000000000000000000000000000000000000000000000000008152600401610bbb90612733565b60405180910390fd5b6000610bce611a1a565b600080600090505b600580549050811015610cdb576005821015610cc8578360058281548110610c0157610c00612346565b5b9060005260206000209060020201600101541415610c455780838360058110610c2d57610c2c612346565b5b6020020181815250508180610c41906123a4565b9250505b8360058281548110610c5a57610c59612346565b5b9060005260206000209060020201600101541115610cc757610c7a611a1a565b92508083600060058110610c9157610c90612346565b5b60200201818152505060058181548110610cae57610cad612346565b5b9060005260206000209060020201600101549350600191505b5b8080610cd3906123a4565b915050610bd6565b5060005b81811015610dca576001838260058110610cfc57610cfb612346565b5b6020020151908060018154018082558091505060019003906000526020600020016000909190919091505560026005848360058110610d3e57610d3d612346565b5b602002015181548110610d5457610d53612346565b5b906000526020600020906002020190806001815401808255809150506001900390600052602060002090600202016000909190919091506000820181600001908054610d9f90612666565b610daa929190611a3c565b506001820154816001015550508080610dc2906123a4565b915050610cdf565b506005600460006101000a81548160ff02191690836005811115610df157610df0611d6d565b5b02179055507f0a97a4ee45751e2abf3e4fc8946939630b11b371ea8ae39ccdc3056e98f5cc3f60046005604051610e29929190612698565b60405180910390a1505050565b610e3e6118ae565b73ffffffffffffffffffffffffffffffffffffffff16610e5c610865565b73ffffffffffffffffffffffffffffffffffffffff1614610eb2576040517f08c379a0000000000000000000000000000000000000000000000000000000008152600401610ea990612617565b60405180910390fd5b60006005811115610ec657610ec5611d6d565b5b600460009054906101000a900460ff166005811115610ee857610ee7611d6d565b5b14610f28576040517f08c379a0000000000000000000000000000000000000000000000000000000008152600401610f1f906127c5565b60405180910390fd5b6001600460006101000a81548160ff02191690836005811115610f4e57610f4d611d6d565b5b02179055507f0a97a4ee45751e2abf3e4fc8946939630b11b371ea8ae39ccdc3056e98f5cc3f60006001604051610f86929190612698565b60405180910390a1565b610f986118ae565b73ffffffffffffffffffffffffffffffffffffffff16610fb6610865565b73ffffffffffffffffffffffffffffffffffffffff161461100c576040517f08c379a000000000000000000000000000000000000000000000000000000000815260040161100390612617565b60405180910390fd5b600160058111156110205761101f611d6d565b5b600460009054906101000a900460ff16600581111561104257611041611d6d565b5b14611082576040517f08c379a000000000000000000000000000000000000000000000000000000000815260040161107990612857565b60405180910390fd5b6002600460006101000a81548160ff021916908360058111156110a8576110a7611d6d565b5b02179055507f0a97a4ee45751e2abf3e4fc8946939630b11b371ea8ae39ccdc3056e98f5cc3f600160026040516110e0929190612698565b60405180910390a1565b6110f2611ac9565b600660003373ffffffffffffffffffffffffffffffffffffffff1673ffffffffffffffffffffffffffffffffffffffff16815260200190815260200160002060000160009054906101000a900460ff16611181576040517f08c379a0000000000000000000000000000000000000000000000000000000008152600401611178906121bc565b60405180910390fd5b600660008373ffffffffffffffffffffffffffffffffffffffff1673ffffffffffffffffffffffffffffffffffffffff1681526020019081526020016000206040518060600160405290816000820160009054906101000a900460ff161515151581526020016000820160019054906101000a900460ff161515151581526020016001820154815250509050919050565b606060058081111561122757611226611d6d565b5b600460009054906101000a900460ff16600581111561124957611248611d6d565b5b14611289576040517f08c379a0000000000000000000000000000000000000000000000000000000008152600401611280906128c3565b60405180910390fd5b6002805480602002602001604051908101604052809291908181526020016000905b8282101561137957838290600052602060002090600202016040518060400160405290816000820180546112de90612666565b80601f016020809104026020016040519081016040528092919081815260200182805461130a90612666565b80156113575780601f1061132c57610100808354040283529160200191611357565b820191906000526020600020905b81548152906001019060200180831161133a57829003601f168201915b50505050508152602001600182015481525050815260200190600101906112ab565b50505050905090565b61138a6118ae565b73ffffffffffffffffffffffffffffffffffffffff166113a8610865565b73ffffffffffffffffffffffffffffffffffffffff16146113fe576040517f08c379a00000000000000000000000000000000000000000000000000000000081526004016113f590612617565b60405180910390fd5b6002600581111561141257611411611d6d565b5b600460009054906101000a900460ff16600581111561143457611433611d6d565b5b14611474576040517f08c379a000000000000000000000000000000000000000000000000000000000815260040161146b90612955565b60405180910390fd5b6003600460006101000a81548160ff0219169083600581111561149a57611499611d6d565b5b02179055507f0a97a4ee45751e2abf3e4fc8946939630b11b371ea8ae39ccdc3056e98f5cc3f600260036040516114d2929190612698565b60405180910390a1565b6114e46118ae565b73ffffffffffffffffffffffffffffffffffffffff16611502610865565b73ffffffffffffffffffffffffffffffffffffffff1614611558576040517f08c379a000000000000000000000000000000000000000000000000000000000815260040161154f90612617565b60405180910390fd5b600073ffffffffffffffffffffffffffffffffffffffff168173ffffffffffffffffffffffffffffffffffffffff1614156115c8576040517f08c379a00000000000000000000000000000000000000000000000000000000081526004016115bf906129e7565b60405180910390fd5b6115d1816118b6565b50565b6115dc6118ae565b73ffffffffffffffffffffffffffffffffffffffff166115fa610865565b73ffffffffffffffffffffffffffffffffffffffff1614611650576040517f08c379a000000000000000000000000000000000000000000000000000000000815260040161164790612617565b60405180910390fd5b6000600581111561166457611663611d6d565b5b600460009054906101000a900460ff16600581111561168657611685611d6d565b5b146116c6576040517f08c379a00000000000000000000000000000000000000000000000000000000081526004016116bd90612a79565b60405180910390fd5b60011515600660008373ffffffffffffffffffffffffffffffffffffffff1673ffffffffffffffffffffffffffffffffffffffff16815260200190815260200160002060000160009054906101000a900460ff161515141561175d576040517f08c379a000000000000000000000000000000000000000000000000000000000815260040161175490612ae5565b60405180910390fd5b6001600660008373ffffffffffffffffffffffffffffffffffffffff1673ffffffffffffffffffffffffffffffffffffffff16815260200190815260200160002060000160006101000a81548160ff0219169083151502179055507fb6be2187d059cc2a55fe29e0e503b566e1e0f8c8780096e185429350acffd3dd816040516117e79190611d52565b60405180910390a150565b6005818154811061180257600080fd5b906000526020600020906002020160009150905080600001805461182590612666565b80601f016020809104026020016040519081016040528092919081815260200182805461185190612666565b801561189e5780601f106118735761010080835404028352916020019161189e565b820191906000526020600020905b81548152906001019060200180831161188157829003601f168201915b5050505050908060010154905082565b600033905090565b60008060009054906101000a900473ffffffffffffffffffffffffffffffffffffffff169050816000806101000a81548173ffffffffffffffffffffffffffffffffffffffff021916908373ffffffffffffffffffffffffffffffffffffffff1602179055508173ffffffffffffffffffffffffffffffffffffffff168173ffffffffffffffffffffffffffffffffffffffff167f8be0079c531659141344cd1fd0a4f28419497f9722a3daafe3b4186f6b6457e060405160405180910390a35050565b604051806040016040528060608152602001600081525090565b8280546119a090612666565b90600052602060002090601f0160209004810192826119c25760008555611a09565b82601f106119db57805160ff1916838001178555611a09565b82800160010185558215611a09579182015b82811115611a085782518255916020019190600101906119ed565b5b509050611a169190611aee565b5090565b6040518060a00160405280600590602082028036833780820191505090505090565b828054611a4890612666565b90600052602060002090601f016020900481019282611a6a5760008555611ab8565b82601f10611a7b5780548555611ab8565b82800160010185558215611ab857600052602060002091601f016020900482015b82811115611ab7578254825591600101919060010190611a9c565b5b509050611ac59190611aee565b5090565b6040518060600160405280600015158152602001600015158152602001600081525090565b5b80821115611b07576000816000905550600101611aef565b5090565b6000604051905090565b600080fd5b600080fd5b6000819050919050565b611b3281611b1f565b8114611b3d57600080fd5b50565b600081359050611b4f81611b29565b92915050565b600060208284031215611b6b57611b6a611b15565b5b6000611b7984828501611b40565b91505092915050565b600080fd5b600080fd5b6000601f19601f8301169050919050565b7f4e487b7100000000000000000000000000000000000000000000000000000000600052604160045260246000fd5b611bd582611b8c565b810181811067ffffffffffffffff82111715611bf457611bf3611b9d565b5b80604052505050565b6000611c07611b0b565b9050611c138282611bcc565b919050565b600067ffffffffffffffff821115611c3357611c32611b9d565b5b611c3c82611b8c565b9050602081019050919050565b82818337600083830152505050565b6000611c6b611c6684611c18565b611bfd565b905082815260208101848484011115611c8757611c86611b87565b5b611c92848285611c49565b509392505050565b600082601f830112611caf57611cae611b82565b5b8135611cbf848260208601611c58565b91505092915050565b600060208284031215611cde57611cdd611b15565b5b600082013567ffffffffffffffff811115611cfc57611cfb611b1a565b5b611d0884828501611c9a565b91505092915050565b600073ffffffffffffffffffffffffffffffffffffffff82169050919050565b6000611d3c82611d11565b9050919050565b611d4c81611d31565b82525050565b6000602082019050611d676000830184611d43565b92915050565b7f4e487b7100000000000000000000000000000000000000000000000000000000600052602160045260246000fd5b60068110611dad57611dac611d6d565b5b50565b6000819050611dbe82611d9c565b919050565b6000611dce82611db0565b9050919050565b611dde81611dc3565b82525050565b6000602082019050611df96000830184611dd5565b92915050565b600081519050919050565b600082825260208201905092915050565b60005b83811015611e39578082015181840152602081019050611e1e565b83811115611e48576000848401525b50505050565b6000611e5982611dff565b611e638185611e0a565b9350611e73818560208601611e1b565b611e7c81611b8c565b840191505092915050565b611e9081611b1f565b82525050565b60006040830160008301518482036000860152611eb38282611e4e565b9150506020830151611ec86020860182611e87565b508091505092915050565b60006020820190508181036000830152611eed8184611e96565b905092915050565b611efe81611d31565b8114611f0957600080fd5b50565b600081359050611f1b81611ef5565b92915050565b600060208284031215611f3757611f36611b15565b5b6000611f4584828501611f0c565b91505092915050565b60008115159050919050565b611f6381611f4e565b82525050565b606082016000820151611f7f6000850182611f5a565b506020820151611f926020850182611f5a565b506040820151611fa56040850182611e87565b50505050565b6000606082019050611fc06000830184611f69565b92915050565b600081519050919050565b600082825260208201905092915050565b6000819050602082019050919050565b6000604083016000830151848203600086015261200f8282611e4e565b91505060208301516120246020860182611e87565b508091505092915050565b600061203b8383611ff2565b905092915050565b6000602082019050919050565b600061205b82611fc6565b6120658185611fd1565b93508360208202850161207785611fe2565b8060005b858110156120b35784840389528151612094858261202f565b945061209f83612043565b925060208a0199505060018101905061207b565b50829750879550505050505092915050565b600060208201905081810360008301526120df8184612050565b905092915050565b600082825260208201905092915050565b600061210382611dff565b61210d81856120e7565b935061211d818560208601611e1b565b61212681611b8c565b840191505092915050565b61213a81611b1f565b82525050565b6000604082019050818103600083015261215a81856120f8565b90506121696020830184612131565b9392505050565b7f596f75277265206e6f74206120766f7465720000000000000000000000000000600082015250565b60006121a66012836120e7565b91506121b182612170565b602082019050919050565b600060208201905081810360008301526121d581612199565b9050919050565b7f566f74696e672073657373696f6e20686176656e74207374617274656420796560008201527f7400000000000000000000000000000000000000000000000000000000000000602082015250565b60006122386021836120e7565b9150612243826121dc565b604082019050919050565b600060208201905081810360008301526122678161222b565b9050919050565b7f596f75206861766520616c726561647920766f74656400000000000000000000600082015250565b60006122a46016836120e7565b91506122af8261226e565b602082019050919050565b600060208201905081810360008301526122d381612297565b9050919050565b7f50726f706f73616c206e6f7420666f756e640000000000000000000000000000600082015250565b60006123106012836120e7565b915061231b826122da565b602082019050919050565b6000602082019050818103600083015261233f81612303565b9050919050565b7f4e487b7100000000000000000000000000000000000000000000000000000000600052603260045260246000fd5b7f4e487b7100000000000000000000000000000000000000000000000000000000600052601160045260246000fd5b60006123af82611b1f565b91507fffffffffffffffffffffffffffffffffffffffffffffffffffffffffffffffff8214156123e2576123e1612375565b5b600182019050919050565b60006040820190506124026000830185611d43565b61240f6020830184612131565b9392505050565b7f50726f706f73616c7320617265206e6f7420616c6c6f77656420796574000000600082015250565b600061244c601d836120e7565b915061245782612416565b602082019050919050565b6000602082019050818103600083015261247b8161243f565b9050919050565b50565b60006124926000836120e7565b915061249d82612482565b600082019050919050565b600060208201905081810360008301526124c181612485565b9050919050565b600060208201905081810360008301526124e281846120f8565b905092915050565b7f566f7573206e6520706f7576657a20706173206e65207269656e2070726f706f60008201527f7365720000000000000000000000000000000000000000000000000000000000602082015250565b60006125466023836120e7565b9150612551826124ea565b604082019050919050565b6000602082019050818103600083015261257581612539565b9050919050565b600061258782611b1f565b915061259283611b1f565b9250828210156125a5576125a4612375565b5b828203905092915050565b60006020820190506125c56000830184612131565b92915050565b7f4f776e61626c653a2063616c6c6572206973206e6f7420746865206f776e6572600082015250565b60006126016020836120e7565b915061260c826125cb565b602082019050919050565b60006020820190508181036000830152612630816125f4565b9050919050565b7f4e487b7100000000000000000000000000000000000000000000000000000000600052602260045260246000fd5b6000600282049050600182168061267e57607f821691505b6020821081141561269257612691612637565b5b50919050565b60006040820190506126ad6000830185611dd5565b6126ba6020830184611dd5565b9392505050565b7f43757272656e7420737461747573206973206e6f7420766f74696e672073657360008201527f73696f6e20656e64656400000000000000000000000000000000000000000000602082015250565b600061271d602a836120e7565b9150612728826126c1565b604082019050919050565b6000602082019050818103600083015261274c81612710565b9050919050565b7f5265676973746572696e672070726f706f73616c732063616e7420626520737460008201527f6172746564206e6f770000000000000000000000000000000000000000000000602082015250565b60006127af6029836120e7565b91506127ba82612753565b604082019050919050565b600060208201905081810360008301526127de816127a2565b9050919050565b7f5265676973746572696e672070726f706f73616c7320686176656e742073746160008201527f7274656420796574000000000000000000000000000000000000000000000000602082015250565b60006128416028836120e7565b915061284c826127e5565b604082019050919050565b6000602082019050818103600083015261287081612834565b9050919050565b7f566f74657320617265206e6f742074616c6c6965642079657400000000000000600082015250565b60006128ad6019836120e7565b91506128b882612877565b602082019050919050565b600060208201905081810360008301526128dc816128a0565b9050919050565b7f5265676973746572696e672070726f706f73616c73207068617365206973206e60008201527f6f742066696e6973686564000000000000000000000000000000000000000000602082015250565b600061293f602b836120e7565b915061294a826128e3565b604082019050919050565b6000602082019050818103600083015261296e81612932565b9050919050565b7f4f776e61626c653a206e6577206f776e657220697320746865207a65726f206160008201527f6464726573730000000000000000000000000000000000000000000000000000602082015250565b60006129d16026836120e7565b91506129dc82612975565b604082019050919050565b60006020820190508181036000830152612a00816129c4565b9050919050565b7f566f7465727320726567697374726174696f6e206973206e6f74206f70656e2060008201527f7965740000000000000000000000000000000000000000000000000000000000602082015250565b6000612a636023836120e7565b9150612a6e82612a07565b604082019050919050565b60006020820190508181036000830152612a9281612a56565b9050919050565b7f416c726561647920726567697374657265640000000000000000000000000000600082015250565b6000612acf6012836120e7565b9150612ada82612a99565b602082019050919050565b60006020820190508181036000830152612afe81612ac2565b905091905056fea26469706673582212207f917803299561e210ba90cd82a233cea9c10229351b9f0a9774c5943e21153764736f6c634300080a0033",
  "immutableReferences": {},
  "source": "// SPDX-License-Identifier: MIT\n\npragma solidity ^0.8.7;\nimport \"@openzeppelin/contracts/access/Ownable.sol\";\n\n/**\n* @title A contract for proposals' voting  \n* @author Cyril \n*/\ncontract Voting_cyril is Ownable {\n\n    // arrays for draw, uint for single\n    uint[] winningProposalsID;\n    Proposal[] winningProposals;\n    \n    uint winningProposalID;\n    \n    struct Voter {\n        bool isRegistered;\n        bool hasVoted;\n        uint votedProposalId;\n    }\n\n    struct Proposal {\n        string description;\n        uint voteCount;\n    }\n\n    enum  WorkflowStatus {\n        RegisteringVoters,\n        ProposalsRegistrationStarted,\n        ProposalsRegistrationEnded,\n        VotingSessionStarted,\n        VotingSessionEnded,\n        VotesTallied\n    }\n\n    WorkflowStatus public workflowStatus;\n    Proposal[] public proposalsArray;\n    mapping (address => Voter) private voters;\n\n    event VoterRegistered(address voterAddress); \n    event WorkflowStatusChange(WorkflowStatus previousStatus, WorkflowStatus newStatus);\n    event ProposalRegistered(uint proposalId);\n    event Voted (address voter, uint proposalId);\n\n    modifier onlyVoters() {\n        require(voters[msg.sender].isRegistered, \"You're not a voter\");\n        _;\n    }\n    \n   // ::::::::::::: GETTERS ::::::::::::: //\n\n    /** \n    * @dev allows the caller to get info about a voter\n    * @dev only voters can call that function\n    * @param  _addr {address} is the voter's address\n    * @return Voter's struct data in memory\n     */\n    function getVoter(address _addr) external onlyVoters view returns (Voter memory) {\n        return voters[_addr];\n    }\n    \n    /**\n     * @dev allows the caller to retrieve a proposal from its id\n     * @param  _id {uint} - the proposal id\n     * @return Voter's struct data in memory\n     */\n    function getOneProposal(uint _id) external view returns (Proposal memory) {\n        return proposalsArray[_id];\n    }\n\n    /**\n     * @dev allows the caller to retrieve the winning proposals \n     * @return an array of all winners in case of draw\n     */\n    function getWinners() external view returns (Proposal[] memory) {\n        require(workflowStatus == WorkflowStatus.VotesTallied, 'Votes are not tallied yet');\n        return winningProposals; // return proposalsArray[winningProposalID];\n    }\n \n    // ::::::::::::: REGISTRATION ::::::::::::: // \n\n    /**\n     * @dev allows the caller to register a voter\n     * @dev only admin can make that transaction\n     * @dev emit VoterRegistered event \n     * @param _addr {address} - the voter's address\n     */\n    function addVoter(address _addr) external onlyOwner {\n        require(workflowStatus == WorkflowStatus.RegisteringVoters, 'Voters registration is not open yet');\n        require(voters[_addr].isRegistered != true, 'Already registered');\n    \n        voters[_addr].isRegistered = true;\n        emit VoterRegistered(_addr);\n    }\n\n    // ::::::::::::: PROPOSAL ::::::::::::: // \n\n    /**\n     * @dev allows the caller to add a proposal\n     * @dev only voters can make that transaction\n     * @dev emit ProposalRegistered event \n     * @param _desc {string} - the proposal's description\n     */\n    function addProposal(string memory _desc) external onlyVoters {\n        require(workflowStatus == WorkflowStatus.ProposalsRegistrationStarted, 'Proposals are not allowed yet');\n        require(keccak256(abi.encode(_desc)) != keccak256(abi.encode(\"\")), 'Vous ne pouvez pas ne rien proposer'); // facultatif\n        // voir que desc est different des autres\n\n        Proposal memory proposal;\n        proposal.description = _desc;\n        proposalsArray.push(proposal);\n        emit ProposalRegistered(proposalsArray.length-1);\n    }\n\n    // ::::::::::::: VOTE ::::::::::::: //\n\n    /**\n    * @dev allows the caller to vote\n    * @dev only voters can make that transaction\n    * @dev emit Voted event \n    * @param _id {uint} - the proposal's description\n    */\n    function setVote( uint _id) external onlyVoters {\n        require(workflowStatus == WorkflowStatus.VotingSessionStarted, 'Voting session havent started yet');\n        require(voters[msg.sender].hasVoted != true, 'You have already voted');\n        require(_id <= proposalsArray.length, 'Proposal not found'); // pas oblig, et pas besoin du >0 car uint\n\n        voters[msg.sender].votedProposalId = _id;\n        voters[msg.sender].hasVoted = true;\n        proposalsArray[_id].voteCount++;\n\n        emit Voted(msg.sender, _id);\n    }\n\n    // ::::::::::::: STATE ::::::::::::: //\n\n    /**\n    * @dev allows the caller to start the proposal registering\n    * @dev only admin can make that transaction\n    * @dev emit WorkflowStatusChange event \n    */\n    function startProposalsRegistering() external onlyOwner {\n        require(workflowStatus == WorkflowStatus.RegisteringVoters, 'Registering proposals cant be started now');\n        workflowStatus = WorkflowStatus.ProposalsRegistrationStarted;\n        emit WorkflowStatusChange(WorkflowStatus.RegisteringVoters, WorkflowStatus.ProposalsRegistrationStarted);\n    }\n\n    /**\n    * @dev allows the caller to end the proposal registering\n    * @dev only admin can make that transaction\n    * @dev emit WorkflowStatusChange event \n    */\n    function endProposalsRegistering() external onlyOwner {\n        require(workflowStatus == WorkflowStatus.ProposalsRegistrationStarted, 'Registering proposals havent started yet');\n        workflowStatus = WorkflowStatus.ProposalsRegistrationEnded;\n        emit WorkflowStatusChange(WorkflowStatus.ProposalsRegistrationStarted, WorkflowStatus.ProposalsRegistrationEnded);\n    }\n\n    /**\n    * @dev allows the caller to start the voting session\n    * @dev only admin can make that transaction\n    * @dev emit WorkflowStatusChange event \n    */\n    function startVotingSession() external onlyOwner {\n        require(workflowStatus == WorkflowStatus.ProposalsRegistrationEnded, 'Registering proposals phase is not finished');\n        workflowStatus = WorkflowStatus.VotingSessionStarted;\n        emit WorkflowStatusChange(WorkflowStatus.ProposalsRegistrationEnded, WorkflowStatus.VotingSessionStarted);\n    }\n\n    /**\n    * @dev allows the caller to end the voting session\n    * @dev only admin can make that transaction\n    * @dev emit WorkflowStatusChange event \n    */\n    function endVotingSession() external onlyOwner {\n        require(workflowStatus == WorkflowStatus.VotingSessionStarted, 'Voting session havent started yet');\n        workflowStatus = WorkflowStatus.VotingSessionEnded;\n        emit WorkflowStatusChange(WorkflowStatus.VotingSessionStarted, WorkflowStatus.VotingSessionEnded);\n    }\n\n    /**\n    * @dev allows the caller to count the votes\n    * @dev only admin can make that transaction\n    * @dev emit WorkflowStatusChange event \n    */\n    function countVotes() external onlyOwner {\n       require(workflowStatus == WorkflowStatus.VotingSessionEnded, \"Current status is not voting session ended\");\n        uint highestCount;\n        uint[5] memory winners; // egalite entre 5 proposals max\n        uint nbWinners;\n        for (uint i = 0; i < proposalsArray.length; i++) {\n            if (nbWinners<5){\n                if (proposalsArray[i].voteCount == highestCount) {\n                    winners[nbWinners]=i;\n                    nbWinners++;\n                }\n                if (proposalsArray[i].voteCount > highestCount) {\n                    delete winners;\n                    winners[0]= i;\n                    highestCount = proposalsArray[i].voteCount;\n                    nbWinners=1;\n                }\n            }\n        }\n        for(uint j=0;j<nbWinners;j++){\n            winningProposalsID.push(winners[j]);\n            winningProposals.push(proposalsArray[winners[j]]);\n        }\n        workflowStatus = WorkflowStatus.VotesTallied;\n        emit WorkflowStatusChange(WorkflowStatus.VotingSessionEnded, WorkflowStatus.VotesTallied);\n    }\n}",
  "sourcePath": "/Users/urdoom/blockchain_development/Alyra/react/defi3-v2/defi3-v2/contracts/voting_cyril.sol",
  "compiler": {
    "name": "solc",
    "version": "0.8.10+commit.fc410830.Emscripten.clang"
  },
  "schemaVersion": "3.4.3",
  "updatedAt": "2021-11-29T15:51:11.788Z",
  "networkType": "ethereum",
  "devdoc": {
    "author": "Cyril ",
    "kind": "dev",
    "methods": {
      "addProposal(string)": {
        "details": "allows the caller to add a proposalonly voters can make that transactionemit ProposalRegistered event ",
        "params": {
          "_desc": "{string} - the proposal's description"
        }
      },
      "addVoter(address)": {
        "details": "allows the caller to register a voteronly admin can make that transactionemit VoterRegistered event ",
        "params": {
          "_addr": "{address} - the voter's address"
        }
      },
      "countVotes()": {
        "details": "allows the caller to count the votesonly admin can make that transactionemit WorkflowStatusChange event "
      },
      "endProposalsRegistering()": {
        "details": "allows the caller to end the proposal registeringonly admin can make that transactionemit WorkflowStatusChange event "
      },
      "endVotingSession()": {
        "details": "allows the caller to end the voting sessiononly admin can make that transactionemit WorkflowStatusChange event "
      },
      "getOneProposal(uint256)": {
        "details": "allows the caller to retrieve a proposal from its id",
        "params": {
          "_id": "{uint} - the proposal id"
        },
        "returns": {
          "_0": "Voter's struct data in memory"
        }
      },
      "getVoter(address)": {
        "details": "allows the caller to get info about a voteronly voters can call that function",
        "params": {
          "_addr": "{address} is the voter's address"
        },
        "returns": {
          "_0": "Voter's struct data in memory"
        }
      },
      "getWinners()": {
        "details": "allows the caller to retrieve the winning proposals ",
        "returns": {
          "_0": "an array of all winners in case of draw"
        }
      },
      "owner()": {
        "details": "Returns the address of the current owner."
      },
      "renounceOwnership()": {
        "details": "Leaves the contract without owner. It will not be possible to call `onlyOwner` functions anymore. Can only be called by the current owner. NOTE: Renouncing ownership will leave the contract without an owner, thereby removing any functionality that is only available to the owner."
      },
      "setVote(uint256)": {
        "details": "allows the caller to voteonly voters can make that transactionemit Voted event ",
        "params": {
          "_id": "{uint} - the proposal's description"
        }
      },
      "startProposalsRegistering()": {
        "details": "allows the caller to start the proposal registeringonly admin can make that transactionemit WorkflowStatusChange event "
      },
      "startVotingSession()": {
        "details": "allows the caller to start the voting sessiononly admin can make that transactionemit WorkflowStatusChange event "
      },
      "transferOwnership(address)": {
        "details": "Transfers ownership of the contract to a new account (`newOwner`). Can only be called by the current owner."
      }
    },
    "title": "A contract for proposals' voting  ",
    "version": 1
  },
  "userdoc": {
    "kind": "user",
    "methods": {},
    "version": 1
  }
}